:020000040000FA
:060000005AEF01F01200AE
:0A0006000100D20200006A000000B1
:0400100008000000E4
:0C001400959098909368966A8D6A8F9082
:100020008C6A800EE66E030EE66E010EE66EE3EC61
:1000300000F0E552E552E5528D966FC0E6FF15ECF3
:1000400001F0E55270C0E6FF15EC01F0E5520F0E2D
:10005000C91400016A6F33EC01F000016B6F8D86EB
:100060000000000000008D966FC0E6FF15EC01F067
:10007000E55271C0E6FF15EC01F0E5520F0EC91410
:1000800000016C6F33EC01F000016D6F8D86C69A34
:10009000000000000000800EE66EE66A040EE66EC8
:1000A000E3EC00F0E552E552E5526AC0C9FF0000FA
:1000B000C7B002D08C68FCD78C6AC9CF6EF06BC019
:1000C000C9FF0000C7B002D08C68FCD78C6AC9CFCA
:1000D0006EF06CC0C9FF0000C7B002D08C68FCD7BE
:1000E0008C6AC9CF6EF06DC0C9FF0000C7B002D0E6
:1000F0008C68FCD78C6AC9CF6EF0AA0EC96E00005E
:10010000C7B002D08C68FCD78C6AC9CF6EF0100ED5
:1001100000016E5D01E18F80200E00016E5D01E146
:080120008F90C69A7DD71200F2
:08012800060EF66E000EF76EE4
:10013000000EF86E00010900F550656F0900F550DA
:10014000666F03E1656701D03DD00900F550606F2F
:100150000900F550616F0900F550626F0900090050
:10016000F550E96E0900F550EA6E09000900090032
:10017000F550636F0900F550646F09000900F6CF70
:1001800067F0F7CF68F0F8CF69F060C0F6FF61C0A4
:10019000F7FF62C0F8FF0001635302E1645307E018
:1001A0000900F550EE6E6307F8E26407F9D767C0FF
:1001B000F6FF68C0F7FF69C0F8FF00016507000E91
:0601C000665BBFD71200D0
:0A01C600D9CFE6FFDACFE6FFE1CF64
:1001D000D9FFE2CFDAFF3F0EC716C66AFD0EDB502D
:1001E000C612FB0EDB50C712FC0EDB50030A09E0FF
:1001F000010A04E0020A06E1C78C04D0C78CC68855
:1002000001D0C688FD0EDB50050A03E0010A03E1B8
:10021000978E948601D094969488949AC68AE552D3
:0A022000E5CFDAFFE7CFD9FF1200A7
:06022A00D9CFE6FFDACF98
:10023000E6FFE1CFD9FFE2CFDAFFE652C950DF6E29
:100240009E96C69EFD0EDB50C96EC6AE02D0FF0E56
:1002500003D09EA6FED7000EE552E552E5CFDAFFA9
:06026000E7CFD9FF1200F8
:0A026600D9CFE6FFDACFE6FFE1CFC3
:10027000D9FFE2CFDAFFE652C950DF6E9E96C96A17
:100280009EA6FED7C950E552E552E5CFDAFFE7CF8B
:04029000D9FF120080
:0C029400000EF36E00EE00F0080E01D822
:1002A0001200EA6002D0EE6AFCD7F350E960120057
:0402B000EE6AFCD71F
:0C02B40017EE00F027EE00F0F86A019C45
:1002C00094EC00F068EC01F00AEC00F0FBD71200AF
:0202D00012001A
:0802D2000000000000060064BA
:020000040030CA
:0100010022DC
:010003000EEE
:010006008178
:00000001FF
